{
  "contractName": "OpenSign",
  "abi": [
    {
      "anonymous": false,
      "inputs": [
        {
          "indexed": false,
          "internalType": "bytes32",
          "name": "_docHash",
          "type": "bytes32"
        },
        {
          "indexed": false,
          "internalType": "bytes",
          "name": "_ipfsHash",
          "type": "bytes"
        }
      ],
      "name": "ipfsSent",
      "type": "event"
    },
    {
      "inputs": [
        {
          "internalType": "bytes32",
          "name": "",
          "type": "bytes32"
        }
      ],
      "name": "documents",
      "outputs": [
        {
          "internalType": "uint256",
          "name": "timestamp",
          "type": "uint256"
        },
        {
          "internalType": "bytes",
          "name": "ipfs_hash",
          "type": "bytes"
        }
      ],
      "stateMutability": "view",
      "type": "function",
      "constant": true
    },
    {
      "inputs": [
        {
          "internalType": "address",
          "name": "",
          "type": "address"
        },
        {
          "internalType": "uint256",
          "name": "",
          "type": "uint256"
        }
      ],
      "name": "users",
      "outputs": [
        {
          "internalType": "bytes",
          "name": "",
          "type": "bytes"
        }
      ],
      "stateMutability": "view",
      "type": "function",
      "constant": true
    },
    {
      "inputs": [
        {
          "internalType": "bytes",
          "name": "doc_buffer",
          "type": "bytes"
        },
        {
          "internalType": "bytes",
          "name": "ipfs_hash",
          "type": "bytes"
        }
      ],
      "name": "addDocument",
      "outputs": [],
      "stateMutability": "nonpayable",
      "type": "function"
    },
    {
      "inputs": [
        {
          "internalType": "bytes",
          "name": "id",
          "type": "bytes"
        }
      ],
      "name": "signDocument",
      "outputs": [],
      "stateMutability": "nonpayable",
      "type": "function"
    },
    {
      "inputs": [
        {
          "internalType": "bytes",
          "name": "id",
          "type": "bytes"
        }
      ],
      "name": "getSignatures",
      "outputs": [
        {
          "internalType": "address[]",
          "name": "",
          "type": "address[]"
        }
      ],
      "stateMutability": "view",
      "type": "function",
      "constant": true
    }
  ],
  "bytecode": "0x608060405234801561001057600080fd5b50610d50806100206000396000f3fe608060405234801561001057600080fd5b50600436106100575760003560e01c80632b2805db1461005c57806354a02f9e1461008d5780636b45b4e3146100bd578063805674d6146100ed578063c63c5bd114610109575b600080fd5b6100766004803603810190610071919061077a565b610125565b604051610084929190610859565b60405180910390f35b6100a760048036038101906100a29190610913565b6101d1565b6040516100b49190610953565b60405180910390f35b6100d760048036038101906100d29190610aaa565b61028a565b6040516100e49190610bb1565b60405180910390f35b61010760048036038101906101029190610bd3565b610335565b005b610123600480360381019061011e9190610aaa565b61050a565b005b600160205280600052604060002060009150905080600001549080600101805461014e90610c7a565b80601f016020809104026020016040519081016040528092919081815260200182805461017a90610c7a565b80156101c75780601f1061019c576101008083540402835291602001916101c7565b820191906000526020600020905b8154815290600101906020018083116101aa57829003601f168201915b5050505050905082565b600060205281600052604060002081815481106101ed57600080fd5b9060005260206000200160009150915050805461020990610c7a565b80601f016020809104026020016040519081016040528092919081815260200182805461023590610c7a565b80156102825780601f1061025757610100808354040283529160200191610282565b820191906000526020600020905b81548152906001019060200180831161026557829003601f168201915b505050505081565b6060600160008380519060200120815260200190815260200160002060020180548060200260200160405190810160405280929190818152602001828054801561032957602002820191906000526020600020905b8160009054906101000a900473ffffffffffffffffffffffffffffffffffffffff1673ffffffffffffffffffffffffffffffffffffffff16815260200190600101908083116102df575b50505050509050919050565b6000803373ffffffffffffffffffffffffffffffffffffffff1673ffffffffffffffffffffffffffffffffffffffff168152602001908152602001600020819080600181540180825580915050600190039060005260206000200160009091909190915090805190602001906103ac929190610603565b506000600167ffffffffffffffff8111156103ca576103c961097f565b5b6040519080825280602002602001820160405280156103f85781602001602082028036833780820191505090505b50905033816000815181106104105761040f610cac565b5b602002602001019073ffffffffffffffffffffffffffffffffffffffff16908173ffffffffffffffffffffffffffffffffffffffff1681525050600083805190602001209050604051806060016040528042815260200184815260200183815250600160008381526020019081526020016000206000820151816000015560208201518160010190805190602001906104aa929190610603565b5060408201518160020190805190602001906104c7929190610689565b509050507f74f23624030e79f83f303e1e2ef31bd6289b0d0e2408ca6f6c35ac812f49df6e81846040516104fc929190610cea565b60405180910390a150505050565b6000803373ffffffffffffffffffffffffffffffffffffffff1673ffffffffffffffffffffffffffffffffffffffff16815260200190815260200160002081908060018154018082558091505060019003906000526020600020016000909190919091509080519060200190610581929190610603565b506001600082805190602001208152602001908152602001600020600201339080600181540180825580915050600190039060005260206000200160009091909190916101000a81548173ffffffffffffffffffffffffffffffffffffffff021916908373ffffffffffffffffffffffffffffffffffffffff16021790555050565b82805461060f90610c7a565b90600052602060002090601f0160209004810192826106315760008555610678565b82601f1061064a57805160ff1916838001178555610678565b82800160010185558215610678579182015b8281111561067757825182559160200191906001019061065c565b5b5090506106859190610713565b5090565b828054828255906000526020600020908101928215610702579160200282015b828111156107015782518260006101000a81548173ffffffffffffffffffffffffffffffffffffffff021916908373ffffffffffffffffffffffffffffffffffffffff160217905550916020019190600101906106a9565b5b50905061070f9190610713565b5090565b5b8082111561072c576000816000905550600101610714565b5090565b6000604051905090565b600080fd5b600080fd5b6000819050919050565b61075781610744565b811461076257600080fd5b50565b6000813590506107748161074e565b92915050565b6000602082840312156107905761078f61073a565b5b600061079e84828501610765565b91505092915050565b6000819050919050565b6107ba816107a7565b82525050565b600081519050919050565b600082825260208201905092915050565b60005b838110156107fa5780820151818401526020810190506107df565b83811115610809576000848401525b50505050565b6000601f19601f8301169050919050565b600061082b826107c0565b61083581856107cb565b93506108458185602086016107dc565b61084e8161080f565b840191505092915050565b600060408201905061086e60008301856107b1565b81810360208301526108808184610820565b90509392505050565b600073ffffffffffffffffffffffffffffffffffffffff82169050919050565b60006108b482610889565b9050919050565b6108c4816108a9565b81146108cf57600080fd5b50565b6000813590506108e1816108bb565b92915050565b6108f0816107a7565b81146108fb57600080fd5b50565b60008135905061090d816108e7565b92915050565b6000806040838503121561092a5761092961073a565b5b6000610938858286016108d2565b9250506020610949858286016108fe565b9150509250929050565b6000602082019050818103600083015261096d8184610820565b905092915050565b600080fd5b600080fd5b7f4e487b7100000000000000000000000000000000000000000000000000000000600052604160045260246000fd5b6109b78261080f565b810181811067ffffffffffffffff821117156109d6576109d561097f565b5b80604052505050565b60006109e9610730565b90506109f582826109ae565b919050565b600067ffffffffffffffff821115610a1557610a1461097f565b5b610a1e8261080f565b9050602081019050919050565b82818337600083830152505050565b6000610a4d610a48846109fa565b6109df565b905082815260208101848484011115610a6957610a6861097a565b5b610a74848285610a2b565b509392505050565b600082601f830112610a9157610a90610975565b5b8135610aa1848260208601610a3a565b91505092915050565b600060208284031215610ac057610abf61073a565b5b600082013567ffffffffffffffff811115610ade57610add61073f565b5b610aea84828501610a7c565b91505092915050565b600081519050919050565b600082825260208201905092915050565b6000819050602082019050919050565b610b28816108a9565b82525050565b6000610b3a8383610b1f565b60208301905092915050565b6000602082019050919050565b6000610b5e82610af3565b610b688185610afe565b9350610b7383610b0f565b8060005b83811015610ba4578151610b8b8882610b2e565b9750610b9683610b46565b925050600181019050610b77565b5085935050505092915050565b60006020820190508181036000830152610bcb8184610b53565b905092915050565b60008060408385031215610bea57610be961073a565b5b600083013567ffffffffffffffff811115610c0857610c0761073f565b5b610c1485828601610a7c565b925050602083013567ffffffffffffffff811115610c3557610c3461073f565b5b610c4185828601610a7c565b9150509250929050565b7f4e487b7100000000000000000000000000000000000000000000000000000000600052602260045260246000fd5b60006002820490506001821680610c9257607f821691505b60208210811415610ca657610ca5610c4b565b5b50919050565b7f4e487b7100000000000000000000000000000000000000000000000000000000600052603260045260246000fd5b610ce481610744565b82525050565b6000604082019050610cff6000830185610cdb565b8181036020830152610d118184610820565b9050939250505056fea264697066735822122081fd3d26c62db408751e7ea4588e2a0b68c5dc34321f2d8cf8f9fe5b0adab12064736f6c634300080a0033",
  "immutableReferences": {},
  "source": "// SPDX-License-Identifier: MIT\npragma solidity >=0.4.22 <0.9.0;\n\ncontract OpenSign{\n    struct Document {\n        uint timestamp;\n        bytes ipfs_hash;\n        address[] signatures;\n    }\n\n    // mappings   \n    mapping(address => bytes[]) public users; // maps addresses to agreement id\n    mapping(bytes32 => Document) public documents; // maps keccak256(agreement_id) hashes to documents\n\n    // events\n    event ipfsSent(bytes32 _docHash, bytes _ipfsHash);\n\n    function addDocument(bytes memory doc_buffer, bytes memory ipfs_hash) public {\n        users[msg.sender].push(ipfs_hash); // Add document to users' \"signed\" list\n        address[] memory sender = new address[](1);\n        sender[0] = msg.sender;\n\n        bytes32 doc_hash = keccak256(doc_buffer);\n        documents[doc_hash] = Document(block.timestamp, ipfs_hash, sender);\n\n        emit ipfsSent(doc_hash, ipfs_hash);\n    }\n\n    function signDocument(bytes memory id) public {\n        users[msg.sender].push(id);\n        documents[keccak256(id)].signatures.push(msg.sender);\n    }\n    \n    function getSignatures(bytes memory id) public view returns (address[] memory) {\n        return documents[keccak256(id)].signatures;\n    }\n}",
  "sourcePath": "/Users/chrisandoryan/Documents/Projects/Dev/Verifieth/contracts/OpenSign.sol",
  "compiler": {
    "name": "solc",
    "version": "0.8.10+commit.fc410830.Emscripten.clang"
  },
  "schemaVersion": "3.4.10",
  "updatedAt": "2022-11-23T04:06:18.187Z",
  "networkType": "ethereum",
  "devdoc": {
    "kind": "dev",
    "methods": {},
    "version": 1
  },
  "userdoc": {
    "kind": "user",
    "methods": {},
    "version": 1
  }
}