{
  "contractName": "OpenSign",
  "abi": [
    {
      "inputs": [
        {
          "internalType": "bytes32",
          "name": "",
          "type": "bytes32"
        }
      ],
      "name": "documents",
      "outputs": [
        {
          "internalType": "uint256",
          "name": "timestamp",
          "type": "uint256"
        },
        {
          "internalType": "bytes",
          "name": "ipfs_hash",
          "type": "bytes"
        }
      ],
      "stateMutability": "view",
      "type": "function",
      "constant": true
    },
    {
      "inputs": [
        {
          "internalType": "address",
          "name": "",
          "type": "address"
        },
        {
          "internalType": "uint256",
          "name": "",
          "type": "uint256"
        }
      ],
      "name": "users",
      "outputs": [
        {
          "internalType": "bytes",
          "name": "",
          "type": "bytes"
        }
      ],
      "stateMutability": "view",
      "type": "function",
      "constant": true
    },
    {
      "inputs": [
        {
          "internalType": "bytes",
          "name": "doc_id",
          "type": "bytes"
        },
        {
          "internalType": "bytes",
          "name": "ipfs_hash",
          "type": "bytes"
        }
      ],
      "name": "addDocument",
      "outputs": [],
      "stateMutability": "nonpayable",
      "type": "function"
    },
    {
      "inputs": [
        {
          "internalType": "bytes",
          "name": "doc_id",
          "type": "bytes"
        }
      ],
      "name": "signDocument",
      "outputs": [],
      "stateMutability": "nonpayable",
      "type": "function"
    },
    {
      "inputs": [
        {
          "internalType": "bytes",
          "name": "doc_id",
          "type": "bytes"
        }
      ],
      "name": "getSignatures",
      "outputs": [
        {
          "internalType": "address[]",
          "name": "",
          "type": "address[]"
        }
      ],
      "stateMutability": "view",
      "type": "function",
      "constant": true
    }
  ],
  "bytecode": "0x608060405234801561001057600080fd5b50610cd2806100206000396000f3fe608060405234801561001057600080fd5b50600436106100575760003560e01c80632b2805db1461005c57806354a02f9e1461008d5780636b45b4e3146100bd578063805674d6146100ed578063c63c5bd114610109575b600080fd5b6100766004803603810190610071919061073b565b610125565b60405161008492919061081a565b60405180910390f35b6100a760048036038101906100a291906108d4565b6101d1565b6040516100b49190610914565b60405180910390f35b6100d760048036038101906100d29190610a6b565b61028a565b6040516100e49190610b72565b60405180910390f35b61010760048036038101906101029190610b94565b610335565b005b610123600480360381019061011e9190610a6b565b6104cb565b005b600160205280600052604060002060009150905080600001549080600101805461014e90610c3b565b80601f016020809104026020016040519081016040528092919081815260200182805461017a90610c3b565b80156101c75780601f1061019c576101008083540402835291602001916101c7565b820191906000526020600020905b8154815290600101906020018083116101aa57829003601f168201915b5050505050905082565b600060205281600052604060002081815481106101ed57600080fd5b9060005260206000200160009150915050805461020990610c3b565b80601f016020809104026020016040519081016040528092919081815260200182805461023590610c3b565b80156102825780601f1061025757610100808354040283529160200191610282565b820191906000526020600020905b81548152906001019060200180831161026557829003601f168201915b505050505081565b6060600160008380519060200120815260200190815260200160002060020180548060200260200160405190810160405280929190818152602001828054801561032957602002820191906000526020600020905b8160009054906101000a900473ffffffffffffffffffffffffffffffffffffffff1673ffffffffffffffffffffffffffffffffffffffff16815260200190600101908083116102df575b50505050509050919050565b6000803373ffffffffffffffffffffffffffffffffffffffff1673ffffffffffffffffffffffffffffffffffffffff168152602001908152602001600020819080600181540180825580915050600190039060005260206000200160009091909190915090805190602001906103ac9291906105c4565b506000600167ffffffffffffffff8111156103ca576103c9610940565b5b6040519080825280602002602001820160405280156103f85781602001602082028036833780820191505090505b50905033816000815181106104105761040f610c6d565b5b602002602001019073ffffffffffffffffffffffffffffffffffffffff16908173ffffffffffffffffffffffffffffffffffffffff168152505060405180606001604052804281526020018381526020018281525060016000858051906020012081526020019081526020016000206000820151816000015560208201518160010190805190602001906104a59291906105c4565b5060408201518160020190805190602001906104c292919061064a565b50905050505050565b6000803373ffffffffffffffffffffffffffffffffffffffff1673ffffffffffffffffffffffffffffffffffffffff168152602001908152602001600020819080600181540180825580915050600190039060005260206000200160009091909190915090805190602001906105429291906105c4565b506001600082805190602001208152602001908152602001600020600201339080600181540180825580915050600190039060005260206000200160009091909190916101000a81548173ffffffffffffffffffffffffffffffffffffffff021916908373ffffffffffffffffffffffffffffffffffffffff16021790555050565b8280546105d090610c3b565b90600052602060002090601f0160209004810192826105f25760008555610639565b82601f1061060b57805160ff1916838001178555610639565b82800160010185558215610639579182015b8281111561063857825182559160200191906001019061061d565b5b50905061064691906106d4565b5090565b8280548282559060005260206000209081019282156106c3579160200282015b828111156106c25782518260006101000a81548173ffffffffffffffffffffffffffffffffffffffff021916908373ffffffffffffffffffffffffffffffffffffffff1602179055509160200191906001019061066a565b5b5090506106d091906106d4565b5090565b5b808211156106ed5760008160009055506001016106d5565b5090565b6000604051905090565b600080fd5b600080fd5b6000819050919050565b61071881610705565b811461072357600080fd5b50565b6000813590506107358161070f565b92915050565b600060208284031215610751576107506106fb565b5b600061075f84828501610726565b91505092915050565b6000819050919050565b61077b81610768565b82525050565b600081519050919050565b600082825260208201905092915050565b60005b838110156107bb5780820151818401526020810190506107a0565b838111156107ca576000848401525b50505050565b6000601f19601f8301169050919050565b60006107ec82610781565b6107f6818561078c565b935061080681856020860161079d565b61080f816107d0565b840191505092915050565b600060408201905061082f6000830185610772565b818103602083015261084181846107e1565b90509392505050565b600073ffffffffffffffffffffffffffffffffffffffff82169050919050565b60006108758261084a565b9050919050565b6108858161086a565b811461089057600080fd5b50565b6000813590506108a28161087c565b92915050565b6108b181610768565b81146108bc57600080fd5b50565b6000813590506108ce816108a8565b92915050565b600080604083850312156108eb576108ea6106fb565b5b60006108f985828601610893565b925050602061090a858286016108bf565b9150509250929050565b6000602082019050818103600083015261092e81846107e1565b905092915050565b600080fd5b600080fd5b7f4e487b7100000000000000000000000000000000000000000000000000000000600052604160045260246000fd5b610978826107d0565b810181811067ffffffffffffffff8211171561099757610996610940565b5b80604052505050565b60006109aa6106f1565b90506109b6828261096f565b919050565b600067ffffffffffffffff8211156109d6576109d5610940565b5b6109df826107d0565b9050602081019050919050565b82818337600083830152505050565b6000610a0e610a09846109bb565b6109a0565b905082815260208101848484011115610a2a57610a2961093b565b5b610a358482856109ec565b509392505050565b600082601f830112610a5257610a51610936565b5b8135610a628482602086016109fb565b91505092915050565b600060208284031215610a8157610a806106fb565b5b600082013567ffffffffffffffff811115610a9f57610a9e610700565b5b610aab84828501610a3d565b91505092915050565b600081519050919050565b600082825260208201905092915050565b6000819050602082019050919050565b610ae98161086a565b82525050565b6000610afb8383610ae0565b60208301905092915050565b6000602082019050919050565b6000610b1f82610ab4565b610b298185610abf565b9350610b3483610ad0565b8060005b83811015610b65578151610b4c8882610aef565b9750610b5783610b07565b925050600181019050610b38565b5085935050505092915050565b60006020820190508181036000830152610b8c8184610b14565b905092915050565b60008060408385031215610bab57610baa6106fb565b5b600083013567ffffffffffffffff811115610bc957610bc8610700565b5b610bd585828601610a3d565b925050602083013567ffffffffffffffff811115610bf657610bf5610700565b5b610c0285828601610a3d565b9150509250929050565b7f4e487b7100000000000000000000000000000000000000000000000000000000600052602260045260246000fd5b60006002820490506001821680610c5357607f821691505b60208210811415610c6757610c66610c0c565b5b50919050565b7f4e487b7100000000000000000000000000000000000000000000000000000000600052603260045260246000fdfea26469706673582212204a1355a004210fe050e09718008a2f257c6a7d229a665bfce4755dc06efdc2a664736f6c634300080a0033",
  "immutableReferences": {},
  "source": "// SPDX-License-Identifier: MIT\npragma solidity >=0.4.22 <0.9.0;\n\ncontract OpenSign{\n    struct Document {\n        uint timestamp;\n        bytes ipfs_hash;\n        address[] signatures;\n    }\n\n    // mappings   \n    mapping(address => bytes[]) public users; // maps addresses to agreement id\n    mapping(bytes32 => Document) public documents; // maps keccak256(agreement_id) hashes to documents\n\n    function addDocument(bytes memory doc_id, bytes memory ipfs_hash) public {\n        users[msg.sender].push(ipfs_hash); // Add document to users' \"signed\" list\n        address[] memory sender = new address[](1);\n        sender[0] = msg.sender;\n\n        documents[keccak256(doc_id)] = Document(block.timestamp, ipfs_hash, sender);\n    }\n\n    function signDocument(bytes memory doc_id) public {\n        users[msg.sender].push(doc_id);\n        documents[keccak256(doc_id)].signatures.push(msg.sender);\n    }\n    \n    function getSignatures(bytes memory doc_id) public view returns (address[] memory) {\n        return documents[keccak256(doc_id)].signatures;\n    }\n}",
  "sourcePath": "/Users/chrisandoryan/Documents/Projects/Dev/Verifieth/contracts/OpenSign.sol",
  "compiler": {
    "name": "solc",
    "version": "0.8.10+commit.fc410830.Emscripten.clang"
  },
  "schemaVersion": "3.4.10",
  "updatedAt": "2022-11-23T18:21:36.608Z",
  "networkType": "ethereum",
  "devdoc": {
    "kind": "dev",
    "methods": {},
    "version": 1
  },
  "userdoc": {
    "kind": "user",
    "methods": {},
    "version": 1
  }
}