{
  "contractName": "OpenSign",
  "abi": [
    {
      "inputs": [
        {
          "internalType": "bytes32",
          "name": "",
          "type": "bytes32"
        }
      ],
      "name": "documents",
      "outputs": [
        {
          "internalType": "uint256",
          "name": "timestamp",
          "type": "uint256"
        },
        {
          "internalType": "bytes",
          "name": "ipfs_hash",
          "type": "bytes"
        },
        {
          "internalType": "bool",
          "name": "lock_sign",
          "type": "bool"
        }
      ],
      "stateMutability": "view",
      "type": "function",
      "constant": true
    },
    {
      "inputs": [
        {
          "internalType": "address",
          "name": "",
          "type": "address"
        },
        {
          "internalType": "uint256",
          "name": "",
          "type": "uint256"
        }
      ],
      "name": "users",
      "outputs": [
        {
          "internalType": "bytes",
          "name": "",
          "type": "bytes"
        }
      ],
      "stateMutability": "view",
      "type": "function",
      "constant": true
    },
    {
      "inputs": [
        {
          "internalType": "bytes",
          "name": "doc_id",
          "type": "bytes"
        },
        {
          "internalType": "bytes",
          "name": "ipfs_hash",
          "type": "bytes"
        }
      ],
      "name": "addDocument",
      "outputs": [],
      "stateMutability": "nonpayable",
      "type": "function"
    },
    {
      "inputs": [
        {
          "internalType": "bytes",
          "name": "doc_id",
          "type": "bytes"
        }
      ],
      "name": "signDocument",
      "outputs": [],
      "stateMutability": "nonpayable",
      "type": "function"
    },
    {
      "inputs": [
        {
          "internalType": "bytes",
          "name": "doc_id",
          "type": "bytes"
        },
        {
          "internalType": "bool",
          "name": "lock_sign",
          "type": "bool"
        }
      ],
      "name": "lockDocument",
      "outputs": [],
      "stateMutability": "nonpayable",
      "type": "function"
    },
    {
      "inputs": [
        {
          "internalType": "bytes",
          "name": "doc_id",
          "type": "bytes"
        }
      ],
      "name": "getSignatures",
      "outputs": [
        {
          "internalType": "address[]",
          "name": "",
          "type": "address[]"
        }
      ],
      "stateMutability": "view",
      "type": "function",
      "constant": true
    }
  ],
  "bytecode": "0x608060405234801561001057600080fd5b50610e58806100206000396000f3fe608060405234801561001057600080fd5b50600436106100625760003560e01c80632b2805db1461006757806354a02f9e146100995780636b45b4e3146100c9578063805674d6146100f9578063c63c5bd114610115578063dc005d7014610131575b600080fd5b610081600480360381019061007c9190610810565b61014d565b6040516100909392919061090a565b60405180910390f35b6100b360048036038101906100ae91906109d2565b61020c565b6040516100c09190610a12565b60405180910390f35b6100e360048036038101906100de9190610b69565b6102c5565b6040516100f09190610c70565b60405180910390f35b610113600480360381019061010e9190610c92565b610370565b005b61012f600480360381019061012a9190610b69565b61052f565b005b61014b60048036038101906101469190610d36565b610660565b005b600160205280600052604060002060009150905080600001549080600101805461017690610dc1565b80601f01602080910402602001604051908101604052809291908181526020018280546101a290610dc1565b80156101ef5780601f106101c4576101008083540402835291602001916101ef565b820191906000526020600020905b8154815290600101906020018083116101d257829003601f168201915b5050505050908060030160009054906101000a900460ff16905083565b6000602052816000526040600020818154811061022857600080fd5b9060005260206000200160009150915050805461024490610dc1565b80601f016020809104026020016040519081016040528092919081815260200182805461027090610dc1565b80156102bd5780601f10610292576101008083540402835291602001916102bd565b820191906000526020600020905b8154815290600101906020018083116102a057829003601f168201915b505050505081565b6060600160008380519060200120815260200190815260200160002060020180548060200260200160405190810160405280929190818152602001828054801561036457602002820191906000526020600020905b8160009054906101000a900473ffffffffffffffffffffffffffffffffffffffff1673ffffffffffffffffffffffffffffffffffffffff168152602001906001019080831161031a575b50505050509050919050565b6000803373ffffffffffffffffffffffffffffffffffffffff1673ffffffffffffffffffffffffffffffffffffffff168152602001908152602001600020819080600181540180825580915050600190039060005260206000200160009091909190915090805190602001906103e7929190610699565b506000600167ffffffffffffffff81111561040557610404610a3e565b5b6040519080825280602002602001820160405280156104335781602001602082028036833780820191505090505b509050338160008151811061044b5761044a610df3565b5b602002602001019073ffffffffffffffffffffffffffffffffffffffff16908173ffffffffffffffffffffffffffffffffffffffff168152505060405180608001604052804281526020018381526020018281526020016000151581525060016000858051906020012081526020019081526020016000206000820151816000015560208201518160010190805190602001906104e9929190610699565b50604082015181600201908051906020019061050692919061071f565b5060608201518160030160006101000a81548160ff021916908315150217905550905050505050565b60001515600160008380519060200120815260200190815260200160002060030160009054906101000a900460ff161515141561065d576000803373ffffffffffffffffffffffffffffffffffffffff1673ffffffffffffffffffffffffffffffffffffffff168152602001908152602001600020819080600181540180825580915050600190039060005260206000200160009091909190915090805190602001906105dd929190610699565b506001600082805190602001208152602001908152602001600020600201339080600181540180825580915050600190039060005260206000200160009091909190916101000a81548173ffffffffffffffffffffffffffffffffffffffff021916908373ffffffffffffffffffffffffffffffffffffffff1602179055505b50565b80600160008480519060200120815260200190815260200160002060030160006101000a81548160ff0219169083151502179055505050565b8280546106a590610dc1565b90600052602060002090601f0160209004810192826106c7576000855561070e565b82601f106106e057805160ff191683800117855561070e565b8280016001018555821561070e579182015b8281111561070d5782518255916020019190600101906106f2565b5b50905061071b91906107a9565b5090565b828054828255906000526020600020908101928215610798579160200282015b828111156107975782518260006101000a81548173ffffffffffffffffffffffffffffffffffffffff021916908373ffffffffffffffffffffffffffffffffffffffff1602179055509160200191906001019061073f565b5b5090506107a591906107a9565b5090565b5b808211156107c25760008160009055506001016107aa565b5090565b6000604051905090565b600080fd5b600080fd5b6000819050919050565b6107ed816107da565b81146107f857600080fd5b50565b60008135905061080a816107e4565b92915050565b600060208284031215610826576108256107d0565b5b6000610834848285016107fb565b91505092915050565b6000819050919050565b6108508161083d565b82525050565b600081519050919050565b600082825260208201905092915050565b60005b83811015610890578082015181840152602081019050610875565b8381111561089f576000848401525b50505050565b6000601f19601f8301169050919050565b60006108c182610856565b6108cb8185610861565b93506108db818560208601610872565b6108e4816108a5565b840191505092915050565b60008115159050919050565b610904816108ef565b82525050565b600060608201905061091f6000830186610847565b818103602083015261093181856108b6565b905061094060408301846108fb565b949350505050565b600073ffffffffffffffffffffffffffffffffffffffff82169050919050565b600061097382610948565b9050919050565b61098381610968565b811461098e57600080fd5b50565b6000813590506109a08161097a565b92915050565b6109af8161083d565b81146109ba57600080fd5b50565b6000813590506109cc816109a6565b92915050565b600080604083850312156109e9576109e86107d0565b5b60006109f785828601610991565b9250506020610a08858286016109bd565b9150509250929050565b60006020820190508181036000830152610a2c81846108b6565b905092915050565b600080fd5b600080fd5b7f4e487b7100000000000000000000000000000000000000000000000000000000600052604160045260246000fd5b610a76826108a5565b810181811067ffffffffffffffff82111715610a9557610a94610a3e565b5b80604052505050565b6000610aa86107c6565b9050610ab48282610a6d565b919050565b600067ffffffffffffffff821115610ad457610ad3610a3e565b5b610add826108a5565b9050602081019050919050565b82818337600083830152505050565b6000610b0c610b0784610ab9565b610a9e565b905082815260208101848484011115610b2857610b27610a39565b5b610b33848285610aea565b509392505050565b600082601f830112610b5057610b4f610a34565b5b8135610b60848260208601610af9565b91505092915050565b600060208284031215610b7f57610b7e6107d0565b5b600082013567ffffffffffffffff811115610b9d57610b9c6107d5565b5b610ba984828501610b3b565b91505092915050565b600081519050919050565b600082825260208201905092915050565b6000819050602082019050919050565b610be781610968565b82525050565b6000610bf98383610bde565b60208301905092915050565b6000602082019050919050565b6000610c1d82610bb2565b610c278185610bbd565b9350610c3283610bce565b8060005b83811015610c63578151610c4a8882610bed565b9750610c5583610c05565b925050600181019050610c36565b5085935050505092915050565b60006020820190508181036000830152610c8a8184610c12565b905092915050565b60008060408385031215610ca957610ca86107d0565b5b600083013567ffffffffffffffff811115610cc757610cc66107d5565b5b610cd385828601610b3b565b925050602083013567ffffffffffffffff811115610cf457610cf36107d5565b5b610d0085828601610b3b565b9150509250929050565b610d13816108ef565b8114610d1e57600080fd5b50565b600081359050610d3081610d0a565b92915050565b60008060408385031215610d4d57610d4c6107d0565b5b600083013567ffffffffffffffff811115610d6b57610d6a6107d5565b5b610d7785828601610b3b565b9250506020610d8885828601610d21565b9150509250929050565b7f4e487b7100000000000000000000000000000000000000000000000000000000600052602260045260246000fd5b60006002820490506001821680610dd957607f821691505b60208210811415610ded57610dec610d92565b5b50919050565b7f4e487b7100000000000000000000000000000000000000000000000000000000600052603260045260246000fdfea2646970667358221220814b730a058ed785f60305bcb98becb8f6a8e9921b2ffe1e2fc8d4bf801e40a864736f6c634300080a0033",
  "immutableReferences": {},
  "source": "// SPDX-License-Identifier: MIT\npragma solidity >=0.4.22 <0.9.0;\n\ncontract OpenSign{\n    struct Document {\n        uint timestamp;\n        bytes ipfs_hash;\n        address[] signatures;\n        bool lock_sign;\n    }\n\n    // mappings   \n    mapping(address => bytes[]) public users; // maps addresses to agreement id\n    mapping(bytes32 => Document) public documents; // maps keccak256(agreement_id) hashes to documents\n\n    function addDocument(bytes memory doc_id, bytes memory ipfs_hash) public {\n        users[msg.sender].push(ipfs_hash); // Add document to users' \"signed\" list\n        address[] memory sender = new address[](1);\n        sender[0] = msg.sender;\n\n        documents[keccak256(doc_id)] = Document(block.timestamp, ipfs_hash, sender, false);\n    }\n\n    function signDocument(bytes memory doc_id) public {\n        if (documents[keccak256(doc_id)].lock_sign == false) {\n            users[msg.sender].push(doc_id);\n            documents[keccak256(doc_id)].signatures.push(msg.sender);\n        }\n    }\n\n    function lockDocument(bytes memory doc_id, bool lock_sign) public {\n        documents[keccak256(doc_id)].lock_sign = lock_sign;\n    }\n    \n    function getSignatures(bytes memory doc_id) public view returns (address[] memory) {\n        return documents[keccak256(doc_id)].signatures;\n    }\n}",
  "sourcePath": "/Users/chrisandoryan/Documents/Projects/Dev/Ethsign-Backend/contracts/OpenSign.sol",
  "compiler": {
    "name": "solc",
    "version": "0.8.10+commit.fc410830.Emscripten.clang"
  },
  "schemaVersion": "3.4.10",
  "updatedAt": "2022-11-26T02:06:22.589Z",
  "networkType": "ethereum",
  "devdoc": {
    "kind": "dev",
    "methods": {},
    "version": 1
  },
  "userdoc": {
    "kind": "user",
    "methods": {},
    "version": 1
  }
}