{
  "contractName": "Verify",
  "abi": [
    {
      "inputs": [
        {
          "internalType": "address",
          "name": "_importantAddress",
          "type": "address"
        }
      ],
      "stateMutability": "nonpayable",
      "type": "constructor"
    },
    {
      "inputs": [
        {
          "internalType": "uint256",
          "name": "_number",
          "type": "uint256"
        },
        {
          "internalType": "string",
          "name": "_word",
          "type": "string"
        },
        {
          "internalType": "bytes",
          "name": "sig",
          "type": "bytes"
        }
      ],
      "name": "isValidData",
      "outputs": [
        {
          "internalType": "bool",
          "name": "",
          "type": "bool"
        }
      ],
      "stateMutability": "view",
      "type": "function",
      "constant": true
    },
    {
      "inputs": [
        {
          "internalType": "bytes32",
          "name": "message",
          "type": "bytes32"
        },
        {
          "internalType": "bytes",
          "name": "sig",
          "type": "bytes"
        }
      ],
      "name": "recoverSigner",
      "outputs": [
        {
          "internalType": "address",
          "name": "",
          "type": "address"
        }
      ],
      "stateMutability": "pure",
      "type": "function",
      "constant": true
    },
    {
      "inputs": [
        {
          "internalType": "bytes",
          "name": "sig",
          "type": "bytes"
        }
      ],
      "name": "splitSignature",
      "outputs": [
        {
          "internalType": "uint8",
          "name": "",
          "type": "uint8"
        },
        {
          "internalType": "bytes32",
          "name": "",
          "type": "bytes32"
        },
        {
          "internalType": "bytes32",
          "name": "",
          "type": "bytes32"
        }
      ],
      "stateMutability": "pure",
      "type": "function",
      "constant": true
    }
  ],
  "bytecode": "0x608060405234801561001057600080fd5b50604051610900380380610900833981810160405281019061003291906100db565b806000806101000a81548173ffffffffffffffffffffffffffffffffffffffff021916908373ffffffffffffffffffffffffffffffffffffffff16021790555050610108565b600080fd5b600073ffffffffffffffffffffffffffffffffffffffff82169050919050565b60006100a88261007d565b9050919050565b6100b88161009d565b81146100c357600080fd5b50565b6000815190506100d5816100af565b92915050565b6000602082840312156100f1576100f0610078565b5b60006100ff848285016100c6565b91505092915050565b6107e9806101176000396000f3fe608060405234801561001057600080fd5b50600436106100415760003560e01c806324a69a7e1461004657806397aba7f914610076578063a7bb5803146100a6575b600080fd5b610060600480360381019061005b9190610451565b6100d8565b60405161006d91906104f7565b60405180910390f35b610090600480360381019061008b9190610548565b610168565b60405161009d91906105e5565b60405180910390f35b6100c060048036038101906100bb9190610600565b6101dd565b6040516100cf93929190610674565b60405180910390f35b60008084846040516020016100ee929190610746565b60405160208183030381529060405280519060200120905060008054906101000a900473ffffffffffffffffffffffffffffffffffffffff1673ffffffffffffffffffffffffffffffffffffffff166101478285610168565b73ffffffffffffffffffffffffffffffffffffffff16149150509392505050565b600080600080610177856101dd565b809350819450829550505050600186848484604051600081526020016040526040516101a6949392919061076e565b6020604051602081039080840390855afa1580156101c8573d6000803e3d6000fd5b50505060206040510351935050505092915050565b600080600060418451146101f057600080fd5b60008060006020870151925060408701519150606087015160001a90508083839550955095505050509193909250565b6000604051905090565b600080fd5b600080fd5b6000819050919050565b61024781610234565b811461025257600080fd5b50565b6000813590506102648161023e565b92915050565b600080fd5b600080fd5b6000601f19601f8301169050919050565b7f4e487b7100000000000000000000000000000000000000000000000000000000600052604160045260246000fd5b6102bd82610274565b810181811067ffffffffffffffff821117156102dc576102db610285565b5b80604052505050565b60006102ef610220565b90506102fb82826102b4565b919050565b600067ffffffffffffffff82111561031b5761031a610285565b5b61032482610274565b9050602081019050919050565b82818337600083830152505050565b600061035361034e84610300565b6102e5565b90508281526020810184848401111561036f5761036e61026f565b5b61037a848285610331565b509392505050565b600082601f8301126103975761039661026a565b5b81356103a7848260208601610340565b91505092915050565b600067ffffffffffffffff8211156103cb576103ca610285565b5b6103d482610274565b9050602081019050919050565b60006103f46103ef846103b0565b6102e5565b9050828152602081018484840111156104105761040f61026f565b5b61041b848285610331565b509392505050565b600082601f8301126104385761043761026a565b5b81356104488482602086016103e1565b91505092915050565b60008060006060848603121561046a5761046961022a565b5b600061047886828701610255565b935050602084013567ffffffffffffffff8111156104995761049861022f565b5b6104a586828701610382565b925050604084013567ffffffffffffffff8111156104c6576104c561022f565b5b6104d286828701610423565b9150509250925092565b60008115159050919050565b6104f1816104dc565b82525050565b600060208201905061050c60008301846104e8565b92915050565b6000819050919050565b61052581610512565b811461053057600080fd5b50565b6000813590506105428161051c565b92915050565b6000806040838503121561055f5761055e61022a565b5b600061056d85828601610533565b925050602083013567ffffffffffffffff81111561058e5761058d61022f565b5b61059a85828601610423565b9150509250929050565b600073ffffffffffffffffffffffffffffffffffffffff82169050919050565b60006105cf826105a4565b9050919050565b6105df816105c4565b82525050565b60006020820190506105fa60008301846105d6565b92915050565b6000602082840312156106165761061561022a565b5b600082013567ffffffffffffffff8111156106345761063361022f565b5b61064084828501610423565b91505092915050565b600060ff82169050919050565b61065f81610649565b82525050565b61066e81610512565b82525050565b60006060820190506106896000830186610656565b6106966020830185610665565b6106a36040830184610665565b949350505050565b6000819050919050565b6106c66106c182610234565b6106ab565b82525050565b600081519050919050565b600081905092915050565b60005b838110156107005780820151818401526020810190506106e5565b8381111561070f576000848401525b50505050565b6000610720826106cc565b61072a81856106d7565b935061073a8185602086016106e2565b80840191505092915050565b600061075282856106b5565b6020820191506107628284610715565b91508190509392505050565b60006080820190506107836000830187610665565b6107906020830186610656565b61079d6040830185610665565b6107aa6060830184610665565b9594505050505056fea2646970667358221220186ac2924e5290701d58aad608c823501b0814bd20c32475a1848e4f79974f4d64736f6c634300080a0033",
  "immutableReferences": {},
  "source": "// SPDX-License-Identifier: MIT\npragma solidity >=0.4.22 <0.9.0;\n\ncontract Verify {\n \n   address importantAddress;\n   constructor (address _importantAddress) public{\n       importantAddress = _importantAddress;\n   }\n  \n   function isValidData(uint256 _number, string memory _word, bytes memory sig) public view returns(bool){\n       bytes32 message = keccak256(abi.encodePacked(_number, _word));\n       return (recoverSigner(message, sig) == importantAddress);\n   }\n   function recoverSigner(bytes32 message, bytes memory sig)\n       public\n       pure\n       returns (address)\n     {\n       uint8 v;\n       bytes32 r;\n       bytes32 s;\n       (v, r, s) = splitSignature(sig);\n       return ecrecover(message, v, r, s);\n   }\n   function splitSignature(bytes memory sig)\n       public\n       pure\n       returns (uint8, bytes32, bytes32)\n     {\n       require(sig.length == 65);\n       bytes32 r;\n       bytes32 s;\n       uint8 v;\n       assembly {\n           // first 32 bytes, after the length prefix\n           r := mload(add(sig, 32))\n           // second 32 bytes\n           s := mload(add(sig, 64))\n           // final byte (first byte of the next 32 bytes)\n           v := byte(0, mload(add(sig, 96)))\n       }\n \n       return (v, r, s);\n   }\n}",
  "sourcePath": "/Users/chrisandoryan/Documents/Projects/Dev/Verifieth/contracts/Verify.sol",
  "compiler": {
    "name": "solc",
    "version": "0.8.10+commit.fc410830.Emscripten.clang"
  },
  "schemaVersion": "3.4.10",
  "updatedAt": "2022-11-23T02:38:49.929Z",
  "networkType": "ethereum",
  "devdoc": {
    "kind": "dev",
    "methods": {},
    "version": 1
  },
  "userdoc": {
    "kind": "user",
    "methods": {},
    "version": 1
  }
}