{
  "contractName": "VerifySig",
  "abi": [
    {
      "inputs": [
        {
          "internalType": "bytes",
          "name": "sig",
          "type": "bytes"
        }
      ],
      "name": "splitSignature",
      "outputs": [
        {
          "internalType": "uint8",
          "name": "",
          "type": "uint8"
        },
        {
          "internalType": "bytes32",
          "name": "",
          "type": "bytes32"
        },
        {
          "internalType": "bytes32",
          "name": "",
          "type": "bytes32"
        }
      ],
      "stateMutability": "pure",
      "type": "function",
      "constant": true
    }
  ],
  "bytecode": "0x608060405234801561001057600080fd5b506102ea806100206000396000f3fe608060405234801561001057600080fd5b506004361061002b5760003560e01c8063a7bb580314610030575b600080fd5b61004a600480360381019061004591906101ff565b610062565b6040516100599392919061027d565b60405180910390f35b6000806000604184511461007557600080fd5b60008060006020870151925060408701519150606087015160001a90508083839550955095505050509193909250565b6000604051905090565b600080fd5b600080fd5b600080fd5b600080fd5b6000601f19601f8301169050919050565b7f4e487b7100000000000000000000000000000000000000000000000000000000600052604160045260246000fd5b61010c826100c3565b810181811067ffffffffffffffff8211171561012b5761012a6100d4565b5b80604052505050565b600061013e6100a5565b905061014a8282610103565b919050565b600067ffffffffffffffff82111561016a576101696100d4565b5b610173826100c3565b9050602081019050919050565b82818337600083830152505050565b60006101a261019d8461014f565b610134565b9050828152602081018484840111156101be576101bd6100be565b5b6101c9848285610180565b509392505050565b600082601f8301126101e6576101e56100b9565b5b81356101f684826020860161018f565b91505092915050565b600060208284031215610215576102146100af565b5b600082013567ffffffffffffffff811115610233576102326100b4565b5b61023f848285016101d1565b91505092915050565b600060ff82169050919050565b61025e81610248565b82525050565b6000819050919050565b61027781610264565b82525050565b60006060820190506102926000830186610255565b61029f602083018561026e565b6102ac604083018461026e565b94935050505056fea264697066735822122069aea743a2322e4c1a701c4a6cba872b0431f40432dc72ab3855260e4048e84d64736f6c634300080a0033",
  "immutableReferences": {},
  "source": "// SPDX-License-Identifier: MIT\npragma solidity >=0.4.22 <0.9.0;\n\ncontract VerifySig {\n function splitSignature(bytes memory sig)\n       public\n       pure\n       returns (uint8, bytes32, bytes32)\n   {\n       require(sig.length == 65);\n       bytes32 r;\n       bytes32 s;\n       uint8 v;\n       assembly {\n           // first 32 bytes, after the length prefix\n           r := mload(add(sig, 32))\n           // second 32 bytes\n           s := mload(add(sig, 64))\n           // final byte (first byte of the next 32 bytes)\n           v := byte(0, mload(add(sig, 96)))\n       }\n     \n       return (v, r, s);\n   }\n}",
  "sourcePath": "/Users/chrisandoryan/Documents/Projects/Dev/Verifieth/contracts/VerifySig.sol",
  "compiler": {
    "name": "solc",
    "version": "0.8.10+commit.fc410830.Emscripten.clang"
  },
  "schemaVersion": "3.4.10",
  "updatedAt": "2022-11-22T08:50:07.888Z",
  "networkType": "ethereum",
  "devdoc": {
    "kind": "dev",
    "methods": {},
    "version": 1
  },
  "userdoc": {
    "kind": "user",
    "methods": {},
    "version": 1
  }
}